:03000000020030CB
:1000300012035112033330981912035F7880B63AD5
:100040001308B6760512033380ECB6640712033A40
:1000500080E480E212039380DD12039C75A0FF759B
:100060008300758200D2B5D2B4C28112035F78805A
:10007000B63A3908B66138C281D2B5D2B4C2B478C2
:10008000841203CCF58278821203CCF583600D755F
:10009000F000D281C281D5F0F9D5E0F3E5826007A6
:1000A000D281C281D5E0F912039C80BF020171B6F2
:1000B000722775A0FFD284D285C282C28378821251
:1000C00003CCF9D2B5C2B4D286E5A0D281C28112E6
:1000D00003A5D9F512039C8092B6731B7582007537
:1000E0008300D2B5D2B4C2B4790375A0FFC284C272
:1000F00085C282C28380CCB66524D286D282C28376
:10010000C284C285C2B5C2B4C28674FA75F028D55D
:10011000F0FDD5E0F7D286D2B512039C016BB6771D
:100120003ED286C282D283D284D28578821203CC18
:10013000F5F0C2B5C2B478841203CCF5A0C286D261
:1001400086080874FA000000208706D5E0F702014F
:1001500071D281C281D5F0E0D2B512039C016BB699
:100160007608900177120374016BB6710412039C38
:1001700022120393016B22617438396332303531B6
:1001800020696E74657266616365207620302E3159
:100190002B001203F108B66C08D22112039C020155
:1001A000B0B67308C22112039C0201B0120393225D
:1001B00012035F7880B63A4A08B6710412039C2293
:1001C000B6726312040520211278841203CC2344F2
:1001D000A0C0E012041240620201EE74A0C0E0125E
:1001E0000412405678841203CC120412404C7886D4
:1001F0001203CC1204124042120405D0E0D2E012E5
:100200000412403678821203CCFF1204341203A584
:10021000BF010612045702021E12044BDFEC120348
:10022000F612039C808AB6775012040520211078BC
:10023000841203CC2344A0120412404802025374D7
:10024000A0120412403E78841203CC1204124034EF
:1002500002025378861203CC1204124027788212CD
:1002600003CCFF78881203CC12041240170808DF71
:10027000F41203F612039C21B0B67608900289129C
:10028000037421B012039321B0323443787820698B
:100290006E74657266616365207620302E312B00A6
:1002A00012039C1203F112035F7880B63A6C08B611
:1002B000710412039C22B6720B12039C12043412B6
:1002C00003A580E2B67718081203CC120412500579
:1002D000746E0202D7746112038B12039C80C7B63E
:1002E000611708B62D0812045712039C80B8B62B6C
:1002F0002912044B12039C80ADB674081203F61247
:10030000039C80A2B6730812040512039C8097B662
:10031000760890032012037421B012039380872281
:1003200049324320696E7465726661636520302EC0
:10033000312B0090045B1203742208B6690351A0AC
:1003400022B66A03319222B6610311592212039335
:1003500022C2AF758DFDD28E759852758920227993
:100360007F3098FDC298E59909B420047400F72203
:10037000F780EE22C083C082E493600A3099FDC208
:1003800099F599A380F2D082D083223099FDC29949
:10039000F599223099FDC29975992D223099FDC2A7
:1003A0009975992B2275F010842430B43A004002DC
:1003B00024073099FDC299F599E5F02430B43A004C
:1003C000400224073099FDC299F59922C0F0E6B4A5
:1003D0003A0040029407C3943075F010A4F5F00879
:1003E000E6B43A0040029407C3943025F0D0F018E8
:1003F00022D291D29022C290C2910000D2910000EC
:100400000000D29022D291D290C29000000000C28F
:100410009122C000780833929000D2910000000031
:10042000C291D8F2D2900000D291000000A290C2F6
:1004300091D00022D290C0007808000000D2910034
:1004400000A29033C291D8F2D00022C2900000D214
:1004500091000000C29122D29080F44C616D6150F5
:10046000726F67207620302E322B004C616D615008
:10047000726F672C204A616E205061726B6D616EE5
:100480002C207061726B6D616A4075736572732E9A
:10049000736F75726365666F7267652E6E65742C17
:0504A000203230303372
:00000001FF
